:020000040800F2
:100000000000012019EB0408B5EB040849CA0108F7
:100010009DC80108B5EB0408B5EB0408000000001A
:10002000000000000000000000000000B5EB040824
:10003000B5EB040800000000B5EB0408A593000828
:10004000B5EB0408B5EB0408B5EB0408B5EB040800
:10005000B5EB0408B5EB040885AC00088DAC0008CE
:1000600095AC00089DAC0008A5AC000885AA000866
:1000700095AA0008A9AA0008BDAA0008D1AA0008EC
:10008000E5AA0008F9AA0008B5EB0408B5EB0408D6
:10009000B5EB0408B5EB0408B5EB0408ADAC0008FB
:1000A000DDE30008D9E20008EDE30008C9E200083A
:1000B00001E3000811E3000821E3000839A6000865
:1000C0002DA600086DA6000861A60008B5EB04087F
:1000D000B5EB040805440408114404081D44040851
:1000E000B5AC0008B5EB0408B5EB0408FDE3000867
:1000F000B5E30008B5EB0408A5E300080DAB000864
:10010000B5EB0408ADD8000831E30008B5EB0408EE
:10011000294404083544040841E30008B96104088F
:1001200021AB000835AB000849AB00085DAB000807
:1001300071AB00080000000000000000000000009B
:100140000000000000000000000000000557040847
:1001500085AB000899AB0008ADAB0008414404082A
:10016000A1A6000895A60008B5EB0408B5EB0408A5
:10017000B5EB0408B5EB0408000000000000000027
:10018000B5EB0408B5EB0408B5EB0408B5EB0408BF
:10019000B5EB0408B5EB040800000000B5EB04085B
:1001A000000000000000000000000000B5EB0408A3
:1001B000B5EB0408B5EB04080000000000000000E7
:1001C000000000000000000000000000000000002F
:1001D000000000000000000000000000B5EB040873
:108000001B4B016803F57D7C02E02C3363452BD0CC
:108010001A688A42F9D170B593F804E0427996451E
:108020000BD02C33634505D01A688A42F4D02C3328
:108030006345F9D14FF0FF3070BD9E468468002241
:10804000DEF80C50A54208D001320EF10C0E032AC6
:10805000E7D0DEF80C50A542F6D1DEF81050C66825
:10806000B542F1D150B270BD4FF0FF30704700BF44
:10807000E80A05084368426D30B49A61EFF3118253
:10808000502383F312884168D2B2856C0B68046D6B
:1080900023EA050323430B6082F311884369816857
:1080A0001A68096822F00102D0E908541A60826A4D
:1080B0001D605C615A60D0E90B429C60DA6000236D
:1080C000B0F86C2030BCCA6203777047002A4FEAD0
:1080D000014C034630B508BFE64600F1C00514BFA9
:1080E0008E468C46002419680C3353F8042C43F850
:1080F000084C41EA0C0142EA0E02AB4243F80C1C68
:1081000043F8042CEFD1D0F8C03043EA0E03C0E9A5
:108110003144C0F8C03030BD83695969B3F810C02C
:108120000A6830B49C6822F0010224680A60E268A0
:1081300022EA0C02E260027D00681F2A06D9203A7A
:108140000824456894402C4242D0FEE70824056884
:1081500094402C42F9D1202404FA02F28260254A8C
:108160001278002A32D01A7F012A36D0D3F80021A3
:108170000132C3F80021EFF31181502282F31288FB
:108180005868C9B29D6C0268DC6C22EA0502224381
:10819000026081F311885A699968D3E90D40096832
:1081A00014605061D3E90F40546090605C6CB3F888
:1081B000B400D4600124C8621068204310601A8A99
:1081C0001C7783F8FD40CB681343CB6030BC70470D
:1081D000202404FA02F2C260C1E70022D3F80401AD
:1081E00083F8FD2001300A68C3F8040122F001027F
:1081F0000A60EBE78001002010B40C4C6368002B90
:1082000011DD002004F1080C0146DCF8AC3003F16C
:10821000C00259600C339342FBD1013063680CF506
:10822000867C8342F1DC5DF8044B704780010020BE
:10823000704700BF024B03EB401393F8550470479F
:1082400080010020704700BF0B4890F86C1589B181
:1082500001EB4101002300F27450490010B41C46A8
:1082600050F82320063302B114608B42F8D15DF838
:10827000044B7047704700BF800100200B4890F806
:108280006C1589B101EB4101002300F274504900E3
:1082900010B41C4650F82320063302B114608B4200
:1082A000F8D15DF8044B7047704700BF8001002093
:1082B0000120704700EB4000024B03EBC00393F832
:1082C0008505704780010020204890F86C35002B10
:1082D0003AD0002200F274534FF02C0C2DE9F043F9
:1082E0004FF0500E1A4E1B4D144607E053F8181B62
:1082F00001320C6090F86C15914223DD197C002945
:10830000F4D05F684FF0FE08B90AA1F58011522938
:10831000294498BF91F8F483EFF311818EF312880A
:10832000D7F824900CFB0868C9B209F10109C8F814
:108330002890D7F8148048F00108C7F8148081F31A
:108340001188D3E7BDE8F083704700BF80010020AB
:10835000F0170120E80A050800EE100AB8EE400AFE
:10836000704700BFBCEEC00A10EE103A98B27047DA
:10837000C64BD3E9A51270B58C0F93F82053100E9D
:10838000C2F3072C83F8C842C1F383640001012DB6
:1083900083F8C942C1F3016483F8CA42C1F30744B8
:1083A00083F8CB42C1F30724C9B283F8CC42C2F3AD
:1083B000035483F8CD12A3F8CE02C2F3C030B3F851
:1083C000CE1289B241EA0401C2F30344A3F8CE12EB
:1083D000C2F3403183F8D042C2F3803483F8D10233
:1083E0004FF0000083F8D24283F8D312C2F3003179
:1083F00083F8D412D3F89C1283F8D50240F2EF80B0
:10840000022D00F0C3802A204FEA4C0C83F8E14291
:10841000C1F3C01201F07F010CF07E0C83F8E2C2C0
:108420004FF0010C93F8E2421443D3F8A02283F8F2
:10843000E242D40F83F8E312910D83F8E442C2F3D1
:10844000417401F00C01C2F3815583F8E542C2F397
:10845000826483F8E64283F8E71293F8E712D3F8D0
:10846000A442294383F8E712C2F3405183F8E8128B
:10847000002183F8E912C2F3004183F8EA12C2F343
:10848000C03183F8EB12C2F3803183F8EC12C2F3EF
:10849000403183F8ED12C2F3003183F8EE12C2F3DB
:1084A000812183F8EF12C2F30121C2F3460283F85F
:1084B000F012C4F3074183F8F122220E090283F877
:1084C000F2C283F8F422C4F30722A3F8F6122406BA
:1084D000B3F8F61289B21143A3F8F612D3F8A81232
:1084E000C3F8F8420C0ED3F8F82242EA0442C3F86B
:1084F000F8220A0AD3F8F84202F47F422243C1F379
:108500000724C9B2C3F8F822D3F8F852D3F8AC2242
:108510002C43C3F8F84283F8FC12110E83F8FD12C5
:10852000110C0906C3F800131102D3F800430A46E0
:1085300001F47F01214392B2D3F8B042C3F8001393
:10854000D3F800130A43C3F80023C4F30352D3F84B
:10855000001341EA1461C3F8001393F804131143A4
:10856000C4F3072283F80413210A01F47061A3F80D
:108570000613B3F8061389B21143C4F34602A3F8F5
:10858000061383F8082383F809C370BD1204C1F3EE
:10859000072C0D0E02F47C12C3F8D822C1F3074257
:1085A000D3F8D84244EA0524C3F8D842D3F8D842D5
:1085B00022434FF40074C3F8D822D3F8D822C3F86A
:1085C0001843013240F10004A40244EA925492029A
:1085D000C3F81443C1F38034C3F8102314E74FEAFF
:1085E0008C2CC1F3C26594000CF44062C1F3072CDB
:1085F00004F47F74C3F8D822D3F8D8221443CA0BEA
:10860000C3F8D84202F00602D3F8D84244EA917483
:10861000C3F8D842C1F3026483F8DC52012583F821
:10862000DD42C1F3425483F8DE42C1F3824483F851
:10863000DF42C1F3C03483F8E02293F8E022224302
:1086400083F8E022D3F8D84293F8E02293F8D0627E
:10865000023205FA02F2B540D617A2FB052EC3F886
:10866000185305FB06EE04FB0EEE0134A2FB0424B6
:10867000A644520AC1F3803442EACE52C3F8102312
:108680004FEA5E22C3F81423BEE600BFF0170120B4
:108690002DE9F0410022794B846982B0D3F824633C
:1086A0000192082204F19C07D4E93D839A40D8F84E
:1086B0000050154205D0D4F89C100868400700F11E
:1086C000B08001229A40154205D0D4F89C10496927
:1086D000080600F19D8004229A40154205D0D4F886
:1086E0009C100968890700F18A8010229A4015427F
:1086F00004D0D4F89C10086800076AD420229A405D
:10870000154218D0D4F89C100868C00613D5C8F8D4
:10871000082094F8D120052A39D00B6813F4802F53
:108720000B6800F09280190340F19D80D4F8D83096
:108730000BB138469847D4F8F030002B46D0D4F827
:10874000F030DA071BD54E4BD4F89C20A3FB06363D
:10875000052384F8D130B60A136823F001031360AF
:1087600002E01368DB0704D5019B01339E420193AD
:10877000F7D20022012384F8D02084F8D130D4F835
:10878000E8301BB3384602B0BDE8F04118470A682C
:1087900022F016020A604A6922F080024A61D4F887
:1087A000DC20002A65D00A6822F008020A603F2215
:1087B000002102FA03F30122C8F80830D4F8EC30A3
:1087C00084F8D01084F8D120002BDBD102B0BDE8B2
:1087D000F081C8F808200A6812F4802F0A682DD1A9
:1087E000D20503D40A6822F008020A60D4F8DC201B
:1087F000002A83D038469047D4F8F8307EE7C8F88E
:108800000820D4F8F02042F00402C4F8F0206CE70D
:10881000C8F80820D4F8F02042F00202C4F8F02092
:1088200059E7086820F004000860C8F80820D4F868
:10883000F02042F00102C4F8F02042E71103D5D540
:10884000D4F8E420002AD5D158E713F480737FF4DC
:108850006DAF0A6822F010020A60012284F8D0305D
:1088600084F8D12062E7D4F8E030002B7FF461AFC8
:1088700061E7D4F8E420002A95D198E7F0170120A9
:10888000B5814E1BD0E90920131A58425841704750
:1088900090F8573830B53BB990F85518012490F846
:1088A0005638DAB2914200D830BD04FA03F2B0F87B
:1088B0005E5801332A43A0F85E28F2E703790246A6
:1088C00013F0010006D0D2E90731D2685B1A013AF1
:1088D00003EA0200704710B50379044613F0010360
:1088E0000ED0FFF7EBFF034650B1226A6369E168DF
:1088F0009B5C0132B2FBF1F0DBB201FB1022226281
:10890000184610BD03799B070AD5436A8269D15482
:10891000436A02690133B3FBF2F102FB1133436294
:1089200070477047017170470379014613F00200E8
:1089300007D00B69D1E90921013B521A1A40D2B282
:10894000981A704770B50E4E0D461446D6F87C3313
:108950003BB11A689B881269134096F8792352B18B
:108960005BB9FFF705FD4FF40073D6F81023002024
:108970002A60238070BD002BF3D14FF0FF3070BD13
:10898000F0170120002070470020704738B5074BD2
:1089900014460D46D3F81C341B6A984702464FF420
:1089A0000073002012682A60238038BDF017012070
:1089B00008B5064BD3F81C3423B15B6998470138DE
:1089C00040B208BD4FF0FF3008BD00BFF0170120D6
:1089D000002070472DE9F04113B316460F4603EB14
:1089E0000208134CD4F81C54002339463046AD68B5
:1089F0001A46A8470028F5D0D4F81C34002BFBD029
:108A00005B6998470028F7D0013607F50077B04535
:108A1000E8D1D4F820340020C4F82434BDE8F08133
:108A2000034C0020D4F82034C4F82434BDE8F0818D
:108A3000F01701202DE9F04143B316460F4603EB32
:108A40000208164C04E0D4F81C1419B14B6998477D
:108A5000D4F81C1400230D69304639461A46A8473D
:108A60000028F0D1D4F81C34002BFBD05B69984768
:108A70000028F7D0013607F50077B045E8D1D4F8E3
:108A800020340020C4F82434BDE8F081034C0020D9
:108A9000D4F82034C4F82434BDE8F081F017012064
:108AA00000207047034B93F84C03003818BF012097
:108AB000704700BFF01701201C4AD2F87C336BB11D
:108AC000186892F879139B880069034021B12BB193
:108AD000002382F84C337047002BF9D092F84C33C6
:108AE000032B0FD892F840330133DBB2072B82F807
:108AF0004033EDD8D2F820140123C2F83C1382F899
:108B00004C337047D2F8243309489908B0EB930FDF
:108B10004FF0020306D249085B0081429BB201D9A3
:108B2000FF2BF8D9A2F88433DCE700BFF01701204F
:108B3000801A0600816D03460A6A52681278FF2A7D
:108B400009D090F8F020013A52B2002A80F8F020C3
:108B500006DD012070470822002083F8F0207047CE
:108B60000B6A002202205B681A707047836D1B6AD3
:108B70005B681B78FF2B0AD190F9F030002B03F1D2
:108B8000FF3280F8F020D4BF02200120704700207F
:108B9000704700BF836D1B6A5B681B78FE2B0CD08F
:108BA000FF2B08D190F9F0305A1E002B80F8F020EE
:108BB00001DD01207047022070470020704700BF90
:108BC000034B93F84C03032894BF00200120704707
:108BD000F017012000487047401B0120034B93F819
:108BE0004C03003818BF0120704700BFF017012068
:108BF000034B93F84C03032894BF002001207047D7
:108C0000F017012000487047401B0120184B00203E
:108C100030B49C7B14B11D688D4205D001301033F7
:108C20000B28F6D130BC7047C2B1124B03EB402188
:108C30008A4201D1022C18D00F4B93F8E42712B9C5
:108C4000012283F8E4270D4B01225A7000F5B17020
:108C5000012203EB00139A7130BC7047074B00F5FB
:108C6000B17003EB00139A71DCE7183BEEE700BF2D
:108C7000BC410120BC2B0120A43B0120A42B0120DE
:108C800030B400231C4C04F5C36084F8D03603E0F4
:108C9000013310300B2B15D005688D42F8D190F8B8
:108CA0000EC0BCF1030FF3D1C2B1144901EB432054
:108CB000824209D1A1F1180203F5B173012102EB3F
:108CC0000312917130BC704794F8E42712B9012265
:108CD00084F8E4270A4A01215170EDE7D4F8CC1654
:108CE00003F5B173064A0420013102EB0313C4F803
:108CF000CC169871E6E700BFA43B0120BC2B0120F5
:108D0000A42B01202DE9F041304F07EB401898F8D3
:108D100054340BB9BDE8F08100EB80030E4600210E
:108D2000044607EB4313450193F8362683F83616BD
:108D300088F83A2447F0ACFEB8BB25483D4400EB28
:108D40004410A5F8386447F093FE3B78D5F85024DA
:108D5000A3B1D5F83C140124D2F8AC308C4003F117
:108D6000C001420010F4004F90B202D15A68224371
:108D70005A600C339942F4D1BDE8F081D5F83C1427
:108D80000124D2F8AC3001F1100203F1C00194408B
:108D9000420010F4004F90B202D15A6822435A6048
:108DA0000C338B42F4D1BDE8F0810A4B93F8882450
:108DB00002EB420203EBC203234493F83564002E16
:108DC000BBD0012388F83A34B7E700BF8001002008
:108DD000B8050020F017012010B5044646F078FED3
:108DE0000146204689B2BDE810408BE738B50B4DEF
:108DF00000EB400005F27453C40003EBC0032544AC
:108E000093ED027AD3ED037AE7EE007AB0EE670ACB
:108E100046F05EFED5F87435186038BD800100203C
:108E2000F8B50C4B1D685A69154005405D617DB170
:108E3000094F0126B5FA85F4C4F11F0407EB84033A
:108E400006FA04F4D3F88C0403689847A543F1D1DB
:108E5000F8BD00BF003C0140F017012002692DE978
:108E6000F843C36812EA030828D005460E464FF0BF
:108E70000047B8FA88F327FA03F21B3BD24308EA0B
:108E800002082A61042B16D8DFE803F03B30251ACC
:108E90000300B36A002B3FD003F1FF3900231FFA10
:108EA00089F9B362746A34B1236820464946984709
:108EB0006468002CF8D1B8F1000FDAD1BDE8F8836E
:108EC00070680028F7D0696B036889B29847B8F1D9
:108ED000000FCED1F2E7B0680028ECD0A96B036890
:108EE00089B29847B8F1000FC3D1E7E7F0680028CE
:108EF000E1D0E96B036889B29847B8F1000FB8D1A7
:108F0000DCE730690028D6D0296C036889B298471D
:108F1000B8F1000FADD1D1E7EB6A1FFA83F9C1E7D1
:108F2000F8B5830AA3F58013522B52D8044657484C
:108F3000034493F8F4030D284BD8554D860105EBF7
:108F40008013D3F8CC74A74243D00139C3F8CC4482
:108F500089B2C3F8D814D5F82413B1FBF2F100227A
:108F60000139C3F8DC24C3F8D424C3F8E02493F80F
:108F70000925C3F8D01402F0FF015AB34549022372
:108F8000AF1901EB8011204687F8093504313CF018
:108F9000EBF80123B4F1804F87F809353E4BA4EB81
:108FA0000303B3FA83F34FEA531316D0ABB93B4A2A
:108FB000944257D002F58062944253D0384902F56A
:108FC0007C42944218BF8C422FD002F570529442DA
:108FD0002BD0F8BD83F80815D0E7AA1992F8081528
:108FE0000129F6D0022182F809152E49A068014016
:108FF0000020A160012182F80915AA19022182F836
:1090000009156268A16803B908B122F470022E4400
:1090100022F0700221F08001012000236260A16033
:1090200086F8090586F80835F8BDAA1992F80815DA
:109030000129CED0022182F809151A49A068014001
:109040001948A1600121201A82F809150021B0FAFF
:1090500080F082F80815124A40099442CDD00028C9
:10906000CBD1F8BDAB1993F80825012AB1D0022164
:109070000C4A83F80915A0680240A260012283F817
:10908000092583F809156268A168C0E7E80A0508A0
:10909000F0170120BC1C012000000140000400402A
:1090A000000C00408800FEFF00040140F8B5A0F568
:1090B00007642379DB0725D5657994F8543805F0E2
:1090C00001073D46FBB1D4F84C381A68D36A5B08F7
:1090D000536294F8583823B1B4F862380133A4F8D5
:1090E000623885F00101606C42F000FD012384F8D4
:1090F0005738002384F8553884F85638A4F85E3879
:1091000084F85438F8BD94F85768012E03D194F8C8
:10911000553884F856382046FFF7BAFB4EB901237C
:1091200085EA030184F85738606CBDE8F84042F0E6
:10913000DDBC0023394684F85738F5E770B505469D
:109140000726084C013E00D170BD94F900001BF0C9
:1091500001FB031E04DB6178EA189171A278EA54DE
:109160000434EFE72F0F050810B50F4CD4F88C2806
:109170004AB194F89838918803F0010312681B01F2
:1091800001FA03F393613FF077FAD4F81C34002B13
:10919000FBD05B6998470028F7D0D4F82034002032
:1091A000C4F8243410BD00BFF017012030B50022F0
:1091B00099B00446952513468DF80C108DF80D5086
:1091C00044F040050493012065F307028DF81C303C
:1091D0000A938DF830308DF84430159317931D4D58
:1091E000069010908DF8580002A8CDE90D33CDE916
:1091F00013330B0E099005F5607063F30F220B0C0F
:10920000090A63F317420DF10703059361F31F6227
:10921000114B029208930623104A0DEB03010B93A6
:10922000082312920F9104A985F818343AF080FCB3
:10923000D5F88023136A002BFCD19DF80730FF2B53
:1092400000D01CB99DF8060019B030BD4FF0FF30BA
:10925000FAE700BFF0170120358B00086D8B00087E
:1092600030B597B000231E4C0DF107020890084658
:1092700008218DF8143007938DF828300B938DF862
:109280003C301593174D84F818146944099004F57F
:10929000607006959FED107BCDE90232CDE9103369
:1092A0000122CDE91233022304928DF850200E934F
:1092B0008DED0C7B3AF03CFCD4F88033186A002822
:1092C000FCD19DF80730FE2B03D0FF2B0CBF0120F3
:1092D000022017B030BD00BF0000000000000000F9
:1092E000F0170120958B000830B52C4C9DB0FD2562
:1092F00000230122002000218DF8065004F560753E
:10930000C4F848338DF83C3010938DF850301593E5
:1093100018931A930E928DF86420CDE912320DF154
:109320000603CDE90C01CDE916010CA928461193DD
:109330003AF0FEFBD4F88023136A002BFCD10DF128
:109340000701012228468DF8143009930B930492EB
:109350008DF8282084F81824CDE9023110490691AF
:1093600002A9CDE907333AF0E3FBD4F88033186A59
:109370000028FCD19DF80730FF2B08D0D4F820241A
:109380000923C4F83C2384F84C331DB030BD0423BA
:10939000022084F84C331DB030BD00BFF01701200F
:1093A0006D8B000810B4EFF31182102383F3128841
:1093B0000C4B4FF0E0200024D2B2D3F8201401313E
:1093C000C3F820148169C3F89C18C3F8A048016948
:1093D00082F31188D3F8A4285DF8044B0132C3F856
:1093E000A4287047F017012010B4EFF31181102367
:1093F00083F312884FF0E0229469136913F4803FDD
:109400000D4B03D00120C3F8A0089469D3F82004C1
:10941000C9B2D3F8A02881F311880244D3F8A81860
:109420004FF47A7000FB01F31B1B5DF8044BB3FB98
:10943000F1F300FB02307047F01701202DE9F04FE7
:10944000874C83B00746D4F8909894F898380191E7
:10945000B9F1000F0BD083F00202B9F80410C2F387
:109460004002120101FA02F2D9F800108A61D4F820
:109470008C88B8F1000F09D003F00103B8F804207C
:109480001B0102FA03F3D8F800209361013F754EE7
:109490004FF0E0254FF47A7BFBB20093B9F1000F57
:1094A00008D0D9F80010B9F804304869034218BF51
:1094B0001B048B61B8F1000F00F0C980D8F80010D0
:1094C000B8F80430486903424FF0010018BF1B048C
:1094D0008B6113F03BF8DDF804A07368C3F3080355
:1094E000002B40F0B080EFF31183002B40F0AB80F5
:1094F000D4F82074A869D4F820148F42F8D1D4F895
:109500009C188842F4D8D4F8A8380BFB03F1091A48
:10951000B1FBF3F10BFB07177368C3F30803002BD0
:1095200040F08A80EFF31183002B40F08580D4F85F
:109530002034A969D4F820048342F8D1D4F89C08D7
:109540008142F4D8D4F8A8280BFB02F0401AB0FBF3
:10955000F2F00BFB0300C31BB3F57A7FDCD3BAF147
:10956000010ABAD1B9F1000F08D0D9F80010B9F842
:1095700004304869034218BF1B048B61B8F1000F27
:1095800069D0D8F80010B8F80430486903424FF0A9
:10959000000018BF1B048B6112F0D8FFDDF804A097
:1095A0007368C3F30803002B49D1EFF31183002B39
:1095B00045D1D4F82074A869D4F820148F42F8D18A
:1095C000D4F89C188842F4D8D4F8A8380BFB03F1DF
:1095D000091AB1FBF3F10BFB07177368C3F3080318
:1095E0003BBBEFF3118323BBD4F82034A969D4F833
:1095F00020048342F8D1D4F89C088142F4D8D4F8EE
:10960000A8280BFB02F0401AB0FBF2F00BFB0300A2
:10961000C31BB3F57A7FE0D3BAF1010AC0D1009B36
:109620005F1EFBB2FF2B00937FF438AF03B0BDE8A1
:10963000F08FFFF7D9FEEBE7FFF7D6FE8BE7FFF7DA
:10964000D3FE0746C9E7FFF7CFFE074664E70120D0
:1096500012F07CFF3FE7404612F078FF9EE700BF24
:10966000F017012000ED00E0134B5B68C3F3080323
:1096700003BBEFF31183EBB9104B4FF0E02C10B4A8
:10968000D3F82024DCF81800D3F820148A42F7D14C
:10969000D3F89C188842F3D8D3F8A8484FF47A71CD
:1096A00001FB04F31B1AB3FBF4F35DF8044B01FB5D
:1096B0000230704798E600BF00ED00E0F01701208F
:1096C0002DE9F04F364C83B023781BB9012003B04D
:1096D000BDE8F08FDFF8CC8004F58764DFF8C8B010
:1096E0000025D8F820344FF6FF79DBF804A00BF101
:1096F00008060BF53A77019311E0B0F5606F40D0A2
:10970000B881B0EB0901019A304618BF012111F070
:109710002DF801355C3620341437082D2AD05545F4
:1097200028DAA0696268D0E93D0147F081F94FF677
:10973000FE7398F8AD28984214D0532A04D1B8F893
:10974000B0280132A8F8B028DBF8F022484502F131
:109750000102CBF8F022D0D1DBF8EC220132CBF8B9
:10976000EC22CEE7532AD4D1B8F8B2280132A8F8B7
:10977000B228CEE7012201208BF8EC2303B0BDE82C
:10978000F08F98F8882402EB420208EBC2022A44C8
:1097900092F835240D2AB3D18022BA77B1E700BF01
:1097A00080010020F0170120781200202DE9F047F9
:1097B0002F4FFFF759FFDFF8C09080467E680020EA
:1097C0002C4C002E48DD00234FF486711D4601FB12
:1097D0000372013392F805219E4245EA0205F6D153
:1097E00028435FFA80FAD9F80430C3F3080383BB37
:1097F000EFF311836BBB4FF0E02CD4F82034DCF88E
:109800001810D4F820249342F7D1D4F89C28914220
:10981000F3D8D4F8A8C84FF47A7202FB0CF0401ABF
:10982000B0FBFCF002FB0300A0EB0803B3F5FA6FFA
:10983000CCBF002005F001000028C2D1BAF1000F12
:1098400004D00C4B93F8AD28532A08D05046BDE8FD
:10985000F087FFF7C9FDE7E782460025C3E7B3F8C5
:10986000B42850460132A3F8B428BDE8F08700BF01
:1098700080010020F017012000ED00E070B547F0F6
:1098800017F980B31A484568002D10DD002410F840
:10989000086B16B1037F012B1FD04269013400F51C
:1098A00086701368AC4243F001031360F1D1FFF7F7
:1098B000DBFE104BD3F8F043002C0DDD03F57D7378
:1098C00003EBC4041968083333F8042CC868A342B6
:1098D00042EA0002CA60F5D170BD002380F8FC3076
:1098E000FEF7C8FBD9E743F0FDFC0028CAD170BDE4
:1098F00080010020781200202DE9F0410746DFF8B2
:109900006080FFF7B1FE154C4FF0E0250646D8F811
:109910000430C3F30803EBB9EFF31183D3B9D4F8E0
:109920002034A969D4F820249342F8D1D4F89C2893
:109930009142F4D8D4F8A8C84FF47A7202FB0CF024
:10994000401AB0FBFCF002FB0300831BBB42DED3DA
:10995000BDE8F081FFF748FDF7E700BFF0170120F1
:1099600000ED00E02DE9F041AA4C92B094F8786344
:10997000002E00F0088294F84C335A1E082A00F298
:109980007A81DFE812F033006E00BB0078014B01F2
:1099900088011B00780109003EF03EFE002840F0DF
:1099A000CA82D4F83C33D4F82024FA33934280F0AE
:1099B0005F81FFF781F894F84C33DEE73EF02CFE30
:1099C0000028EED0D4F848330022012B84F840233D
:1099D00040F2E282D4F84423013B08210132C4F86A
:1099E000483384F84C13C4F844230EE100210846A0
:1099F000FFF7DCFBD4F88023C5B2136A002BFCD13F
:109A00000A20FFF779FFD4F8883313B11A689B88CE
:109A10009361012D40F02C81002740F2AB1108200A
:109A200084F84173FFF7C2FBC0B2052800F003823F
:109A3000012800F0E081D4F88023136A002BFCD1C8
:109A40000A20FFF759FFD4F8883313B11A689B88AE
:109A5000936194F84133002B00F09582022384F83F
:109A60004C3394F8415300213720A5F10205FFF74C
:109A70009DFB2920B5FA85F56D09AD072946FFF74D
:109A800095FBD4F88023C5B2136A002BFCD10A20C1
:109A9000FFF732FFD4F8883313B11A689B889361BB
:109AA000002D40F0E58094F84133022B00F00D8248
:109AB0000021092084F84253FFF778FB002800F0CA
:109AC000BF810025D4F88023136A002BFCD10A2023
:109AD000FFF712FFD4F8883313B11A689B8893619B
:109AE000002D00F0C58000210A20FFF75FFBC0B207
:109AF000002840F0D981032384F84C33102103A8B7
:109B0000FFF7AEFB002840F0B380BDF80D309DF8A4
:109B10000C205BBA9DF8111062F307009DF80F202E
:109B2000A4F854339DF8193062F30F209DF81020EB
:109B30001B019DF8145062F317409DF81A20DBB208
:109B400061F31F60DDF8151043EA121302F00F02F3
:109B500009BAC4F8560303F5FA6384F86423C4F819
:109B60005C132909A4F86233BDF81230D4F88023BD
:109B7000A4F85A3305F00F0384F8601384F86133B6
:109B8000136A002BFCD10A20FFF7B6FED4F8883305
:109B900013B11A689B88936194F84233B3B94FF4B8
:109BA00000711020FFF702FBD4F88023C5B2136ABE
:109BB000002BFCD10A20FFF79FFED4F8883313B1A5
:109BC0001A689B889361002D7FF4F3AED4F8243398
:109BD00011499A08B1EB930F4FF0020306D25208D5
:109BE0005B008A429BB201D9FF2BF8D904220021E5
:109BF000A4F884331346C4F8481384F84C23042B88
:109C000018BF082B0CBF01260026304612B0BDE855
:109C1000F08100BFF017012040787D014FF4007102
:109C2000D4F82803FFF71CFB012800F0B2800228BB
:109C300000F0B780E0B9D4F88023136A002BFCD180
:109C40000A20FFF759FED4F8883313B11A689B88AD
:109C5000936104230020D4F8345384F84C3384F8FF
:109C60004003002DD1D0D4F83833D4E9CA21A84715
:109C700094F84C335A1ED2B2022AC0D8D4F82034F9
:109C8000D4F83C239B1AC82B00F2AA800026304649
:109C900012B0BDE8F081D4F88023117B136A00294B
:109CA00046D05269002A43D094F80824002A3FD0B5
:109CB000B3FA83F35B09002BDAD0002302A9012257
:109CC000B248ADF808308DF81830079308938DF836
:109CD0002C3011938DF84020CDE90313022105911A
:109CE0000DF10701CDE9091203A9CDE90C33CDE946
:109CF0000E3339F01DFFD4F880331D6A002DFCD1DE
:109D00009DF8073003F01F03052B00F02681FEF7B6
:109D1000D3FED4F83473002F3FF42DAED4F838338B
:109D20002A46D4F82C130120B84794F84C3324E683
:109D300094F830130023D4F82823944802EB01222E
:109D40004FF48071049303920122059103A98DF8C9
:109D500018208DF82C200793089309930A930C93ED
:109D600039F0E6FED4F88023136A002BFCD194F876
:109D700030230132D2B2A2F1020384F83023B3FAC5
:109D800083F35B0997E7304684F84C6312B0BDE873
:109D9000F081D4F83C33D4F8202464339342BFF4E8
:109DA00067AFD4F88023136A002BFCD10A20FFF799
:109DB000A3FDD4F8883313B11A689B889361FEF72A
:109DC0007BFED4F83453002D3FF4D5AD0022D4F8F7
:109DD0003833D4F82C131046A84794F84C33CCE50C
:109DE000FEF76AFE94F84C63082E18BF042E0CBFD1
:109DF0000126002609E702AB03A964480493042363
:109E000003978DF81870079705930A978DF82C50D3
:109E10000C97CDE9087739F08BFED4F88023136ACC
:109E2000002BFCD19DF80B30AB2B7FF406AE022348
:109E300084F8413301E6D4F8802384F84153FCE5EB
:109E400010215348FFF70CFA00287FF43AAE94F83B
:109E5000773313F001033FF434AE94F86823921182
:109E600000F0AF80012A7FF42CAE94F86F23162106
:109E7000484F02259200D2B2C5F108038B4228BF99
:109E80000B46C3F108059840C91A42FA05F24FF093
:109E9000000540EA020017F8012FEDD101308302DE
:109EA0003546C4F850330DE6D4F88023136A002BEE
:109EB000FCD10A20FFF720FDD4F88833002B3FF4B3
:109EC00078AD1A689B88936173E529463A20FFF7BD
:109ED0006DF902ABC7B203A9049304232B48059381
:109EE000012303958DF82C308DF818500C95CDE991
:109EF0000755CDE9095539F01BFED4F880331A6AAD
:109F0000002AFCD187B91A6A002AFCD10A20FFF77F
:109F1000F3FCD4F8883313B11A689B889361029DCF
:109F20002DBAC5F38075C3E51A6A002AC1D01A6A32
:109F3000002AF9D1BDE7D4F88023136A002BFCD1A5
:109F40000A20FFF7D9FCD4F8883313B11A689B882C
:109F50009361042384F84C3357E60722D4F8203465
:109F6000D4F8345384F84C23C4F83C33002D3FF428
:109F70008DAED4F838330120D4E9CA21A84794F82B
:109F80004C335A1E77E684F84C337FE6701B012071
:109F9000581B01205F1B01205BD00423D4F88023D1
:109FA00084F84C33136A002BFCD10A20FFF7A4FC81
:109FB000D4F88833002B3FF45BAE1A689B8893611A
:109FC00056E694F86D031146DFF89CC0032500F0B7
:109FD0000F0294F87103062780019340C0B2C7F1C5
:109FE0000802AA4228BF2A46C2F108079140AD1ACA
:109FF00040FA07F04FF0000741EA00011CF8010F9A
:10A00000EDD194F86E030231DFF860E00C27800197
:10A010004FF0060CC0B2CCF108024FF0000CBA426F
:10A0200028BF3A46C2F108089540BF1A40FA08F026
:10A0300045EA00051EF8010FEDD10135D81705FAE4
:10A0400001F2A2FB033102FB00125B0A43EAC25396
:10A0500026E7FFF749F902287FF40AAED4F88033E7
:10A060001A6A002AFCD1A0E7611B01205E1B0120B7
:10A070002DE9F0410546884617461E46304C94F8B7
:10A080004C0304280BD0082807D1D4F84433AB4242
:10A0900041D0FFF729F90228F1D0012037E094F8E8
:10A0A0004233B3BB69021820FFF780F8C0B2A0BBEF
:10A0B00094F84C33082B2ED0FE23D4F8802384F858
:10A0C000C438117B1F4BC3F82C8051B1526942B187
:10A0D00094F80824002A14BF4FF400724FF48072E1
:10A0E00001E04FF48072184818495A6339F020FD96
:10A0F000012206230020C4F82883C4F82C53C4F896
:10A100003473C4F8386384F8302384F84C33BDE8E2
:10A11000F0812946C7E7FC23CFE7D4F88023136AF0
:10A12000002BFCD10A20FFF7E7FBD4F8883313B1EA
:10A130001A689B889361FEF7BFFC0320E7E700BF26
:10A14000F017012000000120701B012004000120F5
:10A1500070B5224E05460C4696F84C33042B09D0B8
:10A16000082B20D1D6F8443383421AD0FFF7BCF82D
:10A17000022818D100213720FFF718F821461720B0
:10A18000FFF714F8C0B2B0B996F842336BB9690260
:10A190001920FFF70BF870B90823C6E9D15486F8E7
:10A1A0004C33022070BD012070BD29461920FEF7F6
:10A1B000FDFF0028F0D0D6F88023136A002BFCD1D5
:10A1C0000A20FFF799FBD6F8883313B11A689B88E9
:10A1D0009361FEF771FC032070BD00BFF0170120F2
:10A1E0002DE9F041234C07468846164694F84CC3A7
:10A1F0001D46BCF1040F09D0BCF1080F02D00020AD
:10A20000BDE8F081FFF770F80228F8D194F84233E6
:10A21000BBB139461120FEF7C9FFC0B2C0B9052253
:10A22000D4F820340120C4F82883C4F82C73C4F86F
:10A230003463C4F8385384F84C23C4F83C33BDE885
:10A24000F08179021120FEF7B1FFC0B20028E6D0FC
:10A25000D4F88023136A002BFCD10A20FFF74CFBB3
:10A26000D4F88833002BCAD01A6800209B889361E9
:10A27000C6E700BFF01701202DE9F041294F461E27
:10A28000294C7B68C3F30803002B47D1EFF31183FC
:10A29000002B43D14FF0E020D4F820348169D4F86A
:10A2A00020249342F8D1D4F89C289142F4D8D4F8D1
:10A2B000A8084FF47A7202FB00F8A8EB0108B8FB7B
:10A2C000F0F802FB03884FF0E0257B68C3F3080336
:10A2D0000BBBEFF31183F3B9D4F82034A969D4F898
:10A2E00020249342F8D1D4F89C289142F4D8D4F891
:10A2F000A8C84FF47A7202FB0CF0401AB0FBFCF0D5
:10A3000002FB0300A0EB0803B3F57A7FDDD3013E27
:10A31000B7D2BDE8F081FFF767F8F3E7FFF764F81D
:10A320008046D0E700ED00E0F017012001302DE974
:10A33000F0475D4E4D1E5D4C5FFA80FA4FF4FA77A0
:10A3400032210520FFF77AF87368C3F30803002B66
:10A3500040F0A180EFF31183002B40F09C804FF080
:10A36000E020D4F820348169D4F820249342F8D135
:10A37000D4F89C289142F4D8D4F8A8084FF47A7203
:10A3800002FB00F9A9EB0109B9FBF0F902FB039903
:10A390004FF0E0287368C3F30803002B78D1EFF384
:10A3A0001183002B74D1D4F82034D8F81810D4F8C5
:10A3B00020249342F7D1D4F89C289142F3D8D4F8C2
:10A3C000A8C84FF47A7202FB0CF0401AB0FBFCF004
:10A3D00002FB0300A0EB0903B3F57A7FDAD3013F58
:10A3E000B2D14FF47A77FA215046FFF727F8736815
:10A3F000C3F30803002B52D1EFF31183002B4ED18E
:10A400004FF0E020D4F820348169D4F8202493421E
:10A41000F8D1D4F89C289142F4D8D4F8A8084FF485
:10A420007A7202FB00F9A9EB0109B9FBF0F902FB12
:10A4300003994FF0E0287368C3F308032BBBEFF3D5
:10A44000118313BBD4F82034D8F81810D4F8202482
:10A450009342F7D1D4F89C289142F3D8D4F8A8C8F5
:10A460004FF47A7202FB0CF0401AB0FBFCF002FBD6
:10A470000300A0EB0903B3F57A7FDCD3013FB6D12B
:10A48000013DBFF45BAFBDE8F087FEF7ADFFF0E73D
:10A49000FEF7AAFF9EE7FEF7A7FF814678E7FEF7E3
:10A4A000A3FF8146C5E700BF00ED00E0F0170120E3
:10A4B000817899B10B48D0F8C838102B0FD003EB36
:10A4C000430201334FF0200C0244C0F8C838012386
:10A4D00082F8CC1882F8CDC882F8CE3870470521B2
:10A4E000002023E7F017012010B490F8443000F169
:10A4F0000801484A012BC2F8FC186DD08368464C0D
:10A50000D968A34221F46001D960D96841F460019F
:10A51000D960996B21F440119963996B41F48011D2
:10A520009963996B21F4F8419963996B41F48841DF
:10A530009963996821F47021996099689960996884
:10A5400021F44011996099689960596821F48061FB
:10A550005960596821F48051596059696FF30B01B2
:10A5600059615969596148D0D9682B4C21F0E06193
:10A57000A342D960D96841F0E061D960996B21F4B8
:10A5800040119963996B41F480119963996B21F49F
:10A5900078219963996B41F410219963996821F4AA
:10A5A0007021996099689960996821F440119960C7
:10A5B00099689960596821F480615960596821F45B
:10A5C0008051596099696FF30B019961996999619B
:10A5D0001AD0002380F844301048114B848DC18D6F
:10A5E000408D091BC2F80449C2F800095DF8044B0C
:10A5F00093FBF1F3C2F808397047D4F8041341F41F
:10A600000001C4F80413AFE706494B6843F40003A4
:10A610004B60DEE7F017012000200140007AF01FB8
:10A620008038010000230140704700BF01483AF024
:10A6300061BA00BF10210120084810B4D0F82039B9
:10A64000D0F8544999691A682CB1234600F5126074
:10A650005DF8044B18475DF8044B7047F017012074
:10A6600001483AF047BA00BF70210120084810B4F1
:10A67000D0F88039D0F8B44999691A682CB12346CA
:10A6800000F518605DF8044B18475DF8044B7047FF
:10A69000F017012001483AF02DBA00BFD021012067
:10A6A000084810B4D0F8E039D0F8144A99691A680B
:10A6B0002CB1234600F51E605DF8044B18475DF889
:10A6C000044B7047F017012030B40469002341683F
:10A6D0004025E46882690C31546244699560536096
:10A6E00093631160C2E90333C2E90533C2E907335A
:10A6F000C2E90A33C2E90C3384B1C269E0689363EA
:10A7000050621160C2E90133C2E90333C2E9053383
:10A71000C2E90733C2E90A33C2E90C3330BC7047DF
:10A72000114A037A0168D35C10B4CC58CA1824F0DB
:10A730000104CC501368DB07FCD4037D1F2B09D91F
:10A74000203B20225DF8044B02FA03F343F0180388
:10A75000CB60704720225DF8044B02FA03F343F00C
:10A7600018038B60704700BF90800508F0B506683D
:10A77000356A00295DD12B68AC68B769002B60D0C1
:10A780009C46344B0CEA0303B3F1005F5DD00CF040
:10A790001F0104F11F032CF01F02194421F01F01B7
:10A7A000BFF34F8F00290BDD114402F12003DFF8C6
:10A7B000A8E08B42CEF868221A4603F12003F8D1B4
:10A7C000BFF34F8FBFF36F8F02684FF480637B61DD
:10A7D0005369C7F804C03C6253B36B68F569002B3A
:10A7E00035D01E461B4B3340B3F1005F1BD006F043
:10A7F0001F0104F11F0326F01F02194421F01F015D
:10A80000BFF34F8F00290ADD114402F120031248E3
:10A810008B42C0F870221A4603F12003F8D1BFF32F
:10A820004F8FBFF36F8F4FF480636E606B612C624C
:10A83000F0BDEC69002CFBD06B691435B769002BB7
:10A840009ED1DFF81CC03246C1E73246BDE7034E59
:10A85000EBE700BF0000FFFF00ED00E00400002078
:10A86000000000202DE9F0410468D4E904351A7D88
:10A87000D3E90061002D4DD01F2AA86138D82020CF
:10A880002F6800FA02F242F01802B2602A7D1F2AF5
:10A8900039D9203A202000FA02F242F01802FA6078
:10A8A0006A680020086010603046116841F01001AD
:10A8B000116093F80880A269414640F04FF82D7A64
:10A8C000E2693846294640F049F8274B626813F898
:10A8D0000800595D335843F0010333507B5843F06F
:10A8E00001037B50536843F003035360BDE8F081DC
:10A8F000203A20202F6800FA02F242F01802F2609B
:10A900002A7D1F2AC5D8202000FA02F242F0180240
:10A91000BA60C5E71F2A98611ED8202000FA02F20B
:10A9200042F01802B260002230460A600A6842F023
:10A9300010020A601D7AA269294640F00FF80A4BFE
:10A940006268595D735843F001037350536843F0D4
:10A9500002035360BDE8F081203A202000FA02F2A1
:10A9600042F01802F260DEE79080050810B103683B
:10A9700082889A61704700BF18B1838802681B04FF
:10A980009361704708B51D2010F064FA08B183790F
:10A990004BB11E2010F05EFA08B1837903B108BDF7
:10A9A0005523C38008BD5523C380F2E7D3B2012BE2
:10A9B0001DD802EB42020F4B10B54FEA820E03F591
:10A9C000287C0EF1080402E01C3363450DD01A7890
:10A9D0008242F9D15A788A42F6D11A59002AF3D024
:10A9E0000EF1040E03EB0E0010BD002010BD002080
:10A9F000704700BFC80F050810B40C4C002304F6C4
:10AA00008C2C01E0152B0CD003EB430201331CF816
:10AA100002108142F6D1144494F98E0A5DF8044B79
:10AA200070474FF0FF305DF8044B7047F01701207E
:10AA3000D3B2022B21D802EB420270B54FEA820E4C
:10AA40000F4C002223460EF10C0503E001322C339B
:10AA5000172A10D01E68B042F8D193F804C08C4574
:10AA6000F4D15E59002EF1D02C210EF1080301FB28
:10AA70000233E01870BD002070BD0020704700BF99
:10AA8000E80A05080248436E0BB154301847704776
:10AA9000000001200348D0F888300BB17830184707
:10AAA000704700BF000001200348D0F8AC300BB164
:10AAB0009C301847704700BF000001200348D0F8C1
:10AAC000D0300BB1C0301847704700BF00000120E4
:10AAD0000348D0F8F4300BB1E4301847704700BF9A
:10AAE000000001200348D0F8183113B100F584703C
:10AAF00018477047000001200348D0F83C3113B1DB
:10AB000000F5967018477047000001200348D0F800
:10AB1000603113B100F5A87018477047000001209C
:10AB20000348D0F8843113B100F5BA701847704764
:10AB3000000001200348D0F8A83113B100F5CC7013
:10AB400018477047000001200348D0F8CC3113B1FA
:10AB500000F5DE7018477047000001200348D0F868
:10AB6000F03113B100F5F070184770470000012074
:10AB70000348D0F8143213B100F50170184770473C
:10AB8000000001200348D0F8383213B100F50A70F4
:10AB900018477047000001200348D0F85C3213B119
:10ABA00000F5137018477047000001200348D0F8E3
:10ABB000803213B100F51C70184770470000012067
:10ABC00001380D4B0D4A00EBC000116B03EB800305
:10ABD00010B45B6D83B00A4CA34214BF4FF48003E2
:10ABE0004FF4001319431163126B13400193019B3F
:10ABF00003B05DF8044B70470000012000380240AC
:10AC0000006002400138F8B500EBC000104C1D4652
:10AC1000104B04EB800417460E46606D984214BF3B
:10AC2000962095203EF06EF894F96900B9096666A1
:10AC3000E5663DF0B7FE94F96930002B07DB03F0C1
:10AC40001F0001225B090449824041F82320F8BD1E
:10AC5000000001200060024000E100E0800AA0F551
:10AC60008010522808D8054B034493F8F4330D2B79
:10AC700002D8034AD056704700207047E80A0508FA
:10AC8000808005080120FEF7CBB800BF0220FEF748
:10AC9000C7B800BF0420FEF7C3B800BF0820FEF706
:10ACA000BFB800BF1020FEF7BBB800BF4FF47870EC
:10ACB000FEF7B6B84FF47C40FEF7B2B830B1036887
:10ACC00082881B691A4214BF01200020704700BF10
:10ACD0002DE9F04F0E4683B004461546002800F0DB
:10ACE000C7800268644B13449B0A644AC6F3411947
:10ACF000134493F880073EF005F8C6F38103B4F8D7
:10AD000004E006F00301246801939EFAAEF0B0FA65
:10AD100080F001F1FF383EFA00F367D001220327EB
:10AD2000009603E001303EFA00F35ED002FA00F331
:10AD300013EA0E03F6D0D4F800C093FAA3FBBBFAD3
:10AD40008BFB93FAA3FABAFA8AFA4FEA4B0BB8F1E3
:10AD5000010F4FEA4A0A07FA0BFB01FA0AFA2CEA3A
:10AD60000B0C4CEA0A0CC4F800C04ED9D4F80CC045
:10AD700093FAA3FBBBFA8BFB93FAA3FABAFA8AFA0B
:10AD80004FEA4B0B02294FEA4A0A07FA0BFB09FA72
:10AD90000AFA2CEA0B0C4CEA0A0CC4F80CC0C1D11C
:10ADA00093FAA3FABAFA8AFA4FEA132CBAF1070F08
:10ADB00045DCD4F820C093FAA3FABAFA8AFA93FAD7
:10ADC000A3F34FF00F0BB3FA83F34FEA8A0A013073
:10ADD0009B000BFA0AFA05FA03F32CEA0A0C4CEA78
:10ADE000030323623EFA00F3A0D1009EB8F1010FE5
:10ADF00008D86268C6F3001322EA0E020EFB03F3C2
:10AE00001343636003B0BDE8F08FD4F808C093FA31
:10AE1000A3FBBBFA8BFB93FAA3FABAFA8AFA4FEABE
:10AE20004B0B019E4FEA4A0A07FA0BFB06FA0AFA95
:10AE30002CEA0B0C4CEA0A0CC4F808C096E7D4F8CC
:10AE400024A09CFAACFBBBFA8BFB9CFAACF34FF052
:10AE50000F0CB3FA83F34FEA8B0B9B000CFA0BFC3D
:10AE600005FA03F32AEA0C0A4AEA0303636259E784
:10AE70004FF0FF3339E700BF0000FEBFE80A0508C6
:10AE800008B1002224E7704738B5094C04F5407535
:10AE900002E00834AC4209D0A279002AF9D1204658
:10AEA00008342021FFF714FFAC42F5D138BD00BFB4
:10AEB000BC22012000B10BE770472DE9F84FBA4FD3
:10AEC0006023064603FB0073D3F80C49D3F81489BA
:10AED000D3F81859002C00F05C81B8F1000F04D0B1
:10AEE00098F80630002B40F054811DB1AB79002B4F
:10AEF00040F04F81731CDBB2B8F1000F04D0152273
:10AF000088F8073088F8062015B11622EB71AA716F
:10AF10004FF0600A207C3DF0F5FE29460AFB06FA58
:10AF2000404642F0FBF8404607EB0A09042240F293
:10AF3000145899F81C39002B0CBF4FF01E0B4FF022
:10AF40003E0B5946FFF7B6FF2846984D0422594656
:10AF50005544FFF7AFFF4C220021284645F008FB7F
:10AF6000D9F80C399FED927AB0EE084A5B68F7EE9B
:10AF7000003AB9F81EA94FF0000CC9F820398D4BE2
:10AF80009FED8D5A9A688D4BC2F38222134493F839
:10AF90008827D7F82433D34007EE903AF8EE677A43
:10AFA000C7EE275A07EE90AA9FED857AF8EEE77A6A
:10AFB000C7EE274ADFED837AB0EE007AE5EE877AB6
:10AFC000A5EE875A25EE844A37EE856A74EEE72AA5
:10AFD000BAF5C87F0CF1010ED5BF4FF496727822F6
:10AFE0006423322307EE90EAD8BF4FF41679134456
:10AFF000A2F13202F8EEE76AC8BF4FF4827907EE99
:10B00000903AD4BF41464FF4FA7166EEA56AB8EEA5
:10B01000E77AC7EE267A07EE102A01EB0902B8EEAE
:10B02000C77A37EE447A77EEE37AFCEEE77A17EEEA
:10B03000903AC7EE267AFCEEE77A17EE900A07EE12
:10B04000909AB8EEE73A07EE902AF8EEE77A23EE08
:10B05000243A83EE277A37EE453A32EEC77AC3EECA
:10B06000267A77EEE37AFCEEE77A17EE901AC7EECF
:10B07000267A77EEE37AFCEEE77A17EE902A02F171
:10B08000020909EB010BB0EE467A07EE90BAF8EE32
:10B09000677AA6EEA77AF4EEC74AF1EE10FA7CDCE6
:10B0A00043EA00095FFA89F9B9F10F0F77D841EA4D
:10B0B00002091FFA89F9B9F1FF0F70D81B050004C6
:10B0C00003F07F6392B200F47F0003433E4843EAFB
:10B0D0000C7300EA01210B4313436022284602FB54
:10B0E00006760027C6F824390123C6F82879C6F861
:10B0F0002C39C6F83079C6F83479C6F83C79C6F8E8
:10B10000407940F083FF96F86139202BD9B21AD1EB
:10B1100096F86039012B16D0242386F86139D6F8C9
:10B1200020391A6822F001021A601A6822F480524B
:10B130001A601A681A601A6842F001021A6086F8EA
:10B14000611986F86079002194F912003DF02AFC1B
:10B1500094F91220A37C002A08DB5909012203F08C
:10B160001F0302FA03F3194A42F82130002194F92F
:10B1700011003DF017FC94F91120637C002A08DBD4
:10B180005909012203F01F0302FA03F30F4A42F8A0
:10B190002130BDE8F88FF4461AE7013171E7BEF1BE
:10B1A0000F0FF8D1002398E7F0170120102101209C
:10B1B000286B6E4E0038024000001643E80A05086E
:10B1C000002474490000704200FFFF0000E100E02D
:10B1D0002DE9F84F6D4EC0EB001306EBC303D3F817
:10B1E000CC4D002C00F08A8093F83C8E0546070178
:10B1F00040463DF087FD01224FEA581308F01F0832
:10B20000013B02FA08F2032B08D8DFE803F0ADB3E4
:10B2100002B95F490B6A23EA02030B627B1B05F14B
:10B22000010B06EBC3035FFA8BFB93F8D00D0FF015
:10B2300011FE804618B1122380F807B083717B1B82
:10B2400006EBC30393F8D10D0FF004FE824618B14C
:10B25000132380F807B083717B1B06EBC30393F8BD
:10B26000D20D0FF0F7FD814618B1142380F807B016
:10B2700083717F1B50462E2106EBC70696F8D42D0E
:10B28000FFF718FE96F8D52D48460E21FFF712FE5F
:10B2900096F8D32D2E214046FFF70CFE23683D4A39
:10B2A00023F04003944223602AD03B4B9C4231D18F
:10B2B00003F500331A6A42F480421A621A6A22F4D1
:10B2C00080421A62636843F48053636023685B06BC
:10B2D0000CD4206840F217323049314B01400A4308
:10B2E00022606268134043F4E0636360E36923F41F
:10B2F0000063E361236843F040032360BDE8F88FF7
:10B30000234B5A6A42F480525A625A6A22F480529B
:10B310005A62D7E7234B9C421BD0234B9C420DD053
:10B32000224B9C42CED103F568435A6A42F4801204
:10B330005A625A6A22F480125A62C3E703F58233D2
:10B340005A6A42F400525A625A6A22F400525A620D
:10B35000B8E703F5FE331A6A42F400421A621A6A29
:10B3600022F400421A62ADE709494B6923EA02035D
:10B370004B6153E706494B6A23EA02034B624DE7F0
:10B3800003490B6923EA02030B6147E7F017012029
:10B390000038024000300140003800404000FFFF0C
:10B3A000FBF0FFFF003C0040003401400050014032
:10B3B0000D4B70B55E68002E14DD0C4C002503E0CB
:10B3C00001352034B5420DD0237F002BF8D0E06842
:10B3D00000220028F4D00135217DFFF779FC2034CC
:10B3E000B542F1D1012070BD78120020B8050020CF
:10B3F0002DE9F04F002391B0A44E0193A44BA6F683
:10B400008C0ADFF8949293F8BEEFA24D0EF1FF374D
:10B41000CDF808E0FBB20093DFF898B2DBF80070DB
:10B42000BB0AA3F58013522B00F2D380534493F848
:10B43000F4330D2B00F2CD8015F90380029B012B14
:10B4400000F01981029B022B02D1B8F1080F3AD10A
:10B4500000242146404611F0DFF811F065F990F81C
:10B4600000C0BCF1000F18BFBCF1540F14BF4FF067
:10B47000010C4FF0000C40F0F4800434A4B2102C06
:10B48000E7D1019B002B00F0AF80834A0CE05344CE
:10B4900093F8F4330D2B0ED8EB5643450ED002F53E
:10B4A00086724A4500F09C8091680B689B0AA3F560
:10B4B0008013522BEBD900234345F0D14B799BF8F5
:10B4C00005109942EBD10BF11C0BB345A6D1019BA2
:10B4D00009F586790133042B01939DD1DFF8D8B1AA
:10B4E0004FF0000A0BF59E7300936C4B5B6853455D
:10B4F0006CDD674BDBF80C7093F8D22F9BF81030A3
:10B500000193002F62D066493B684D686548B98851
:10B51000002D1844039302914FEA902040F3D1800C
:10B520005D49002405E0013401F58671AC4200F06C
:10B53000C5800B688342F6D14FF48673564A029E4B
:10B5400003FB0424019B03220AF1010ACBF80C70CF
:10B550008BF81030029BCBF81840B3FA83FCCCF187
:10B560001F035800CBF80430BA7187F807A002FA1D
:10B5700000F7A16C0122656D394302FA00F002FA6E
:10B5800003F3A164216D0143D4F8AC002165444963
:10B590000F7899B2002F00F077812B436365039BEE
:10B5A0009E61FCF793FD20460BF1200BFCF762FD3A
:10B5B00040F201120123BAF1080F2BF8042C009A73
:10B5C00002F1180202F8073C00928ED111B0BDE8DA
:10B5D000F08F009B012B7FF676AF4FF0000837E726
:10B5E000BCF1000F7FF46FAF5846FCF709FD9BF8E4
:10B5F00005E0C3B2022B00F2A68300F1010C2A4A37
:10B600000CEB4C0C02F57D704FEA8C0C03E02C32F5
:10B61000904200F0988313689F42F8D113797345E4
:10B62000F5D152F80C30002BF1D0204800214268AF
:10B630009A4212D0013124301029F8D14FF0FF3353
:10B6400003EBC3031A4A02EB830393F87030002B19
:10B650007FF439AFC9F808B039E74B1CDBB2013BC6
:10B66000EEE7019B002B7FF410AF0BF11C0BB345F1
:10B670007FF4D4AE2BE7B8F1010F3FF4E9AE0BF144
:10B680001C0BB3457FF4CAAE21E700BF7413050855
:10B69000F017012080800508880100207812002022
:10B6A000800100200000FEBFE80A050854000120C8
:10B6B0000000012078120508B8050020042C00F0D5
:10B6C000F080B8494FF4867303FB0513196905919F
:10B6D000002900F007839860013054210692C4B21B
:10B6E000B04A83F8101183F811416B1C5360059B1D
:10B6F00018461E685B790493FCF782FCC3B2022BE8
:10B7000000F2218300F1010EA7494FF0000C069AC8
:10B710000EEB4E0EDDF810904FEA8E0E06E00CF1A7
:10B72000010C2C31BCF1170F00F00D830B689E4209
:10B73000F5D10B794B45F2D151F80E30002BEED0FC
:10B7400098462C2300EB4000974903FB0CF3DFF8ED
:10B75000989203EB800393480B4419694FF4867366
:10B7600003FB05034846C3E90781002104E00131DA
:10B770002430102900F0998043684345F7D14B1CD1
:10B780008A49DBB2013B03EBC30301EB830393F86C
:10B7900070100791002940F088804FF4867184482A
:10B7A00083F871404FF08C0C01FB05F17D4C062AAB
:10B7B00006914FEAA10100FB01F17E4800F54C7EA5
:10B7C00006982044039CC0F800C10CFB01FC01EB6F
:10B7D0004101C46001EB0111764C0EEB4C0E04EB01
:10B7E00081044FF05401C0F8FCE083F870104FF072
:10B7F00033030699C0F8B8306F4BC0F8B44003EB80
:10B8000001046E4BD3F8241300F05A82072A6C4BC4
:10B810006C486D4A18BF1A466C4B18BF0346614806
:10B82000B1FBF3F3B1FBF2F2013B4FF48671013A45
:10B8300001FB05019BB2A1F8BC20A1F8743023667E
:10B84000069B03F1580100F1080330461944002318
:10B85000A4F858306366E3653FF01CF83368049A37
:10B8600043F0800333600C2A2CD8DFE812F0D101BA
:10B870002B002B002B00AF012B002B002B00F10124
:10B880002B002B002B008B01CCF12F0C360402FA7D
:10B890000CF33A462B436365039B9E61FCF716FC51
:10B8A00081E60323454A82F8D33F494849494A4A39
:10B8B0004A4BC0F8D81BC0F8D02BC0F8E03B11B001
:10B8C000BDE8F08F374A4FF48673304603FB0523FB
:10B8D000022259693368039123F001033360002386
:10B8E0000A930D930F93602308934FF480730E9384
:10B8F000012309930A23CDE90B3208AA3EF082FE08
:10B900000399B1F5807F00F0108200F2DC811029EC
:10B9100000F0158200F2EB81012900F00D8204296C
:10B9200015BF4FF4006308233C20002006F11802E5
:10B9300011580B431350059B1879002840F0AF8134
:10B94000336843F0010333600023D9F80420013346
:10B95000904500F0A081102B09F12409F5D14FF09A
:10B96000FF33124A03EBC30302EB8303586D1C4BF6
:10B97000984214BF962095203DF0C4F9049B0C2BEF
:10B9800000F28681084A02EB4303B3F88CC84FF4F7
:10B990008673044A134903FB0523A3F818C0002348
:10B9A0002BE000BF80010020E80A0508000001200C
:10B9B0006B4CA4079C16002088010020F017012082
:10B9C00044950800D0DD06001055220040771B008A
:10B9D0007812002001750108FD740108097501083D
:10B9E000006002406C16002054000120964200F0D6
:10B9F00086810133042B00F0A98151F83320002AFD
:10BA0000F4D1C048D0F8F0230132C0F8F02300EBA5
:10BA1000C302DB00C2F8F46319440798234690225E
:10BA20008E884CEA060C0026A1F804C0B649FFF740
:10BA3000E9F84FF48673B54A40214FF4403CB448CE
:10BA400003FB05280423D8F81C502A6842F0100292
:10BA50002A602A6842F014022A60C4F8A860C4E987
:10BA60001F66C4E92866D8F82020A1674FF48061DA
:10BA7000C4F898C04FF4804CC4F88410E9B2C4F8FC
:10BA80009C30C4F8942010390392D8F8B820A0FB59
:10BA9000010125F0FF00C4F890204FF48052D8F83F
:10BAA0000C90D940C4F88820069B09F1180209F1CE
:10BAB0001009226703F17002964B1A44D8F8B4308B
:10BAC000C4F88CC06367CDE904013EF047FFD5F8A8
:10BAD00000E0069BC4F820E0D5F814E003F1B802BA
:10BAE0008C4BC4F824E0D5F804E01A44039BC4F856
:10BAF00028E0D5F808E0C4F82CE0D5F80CE0C4F84C
:10BB0000DC300423C4F8C860C4F8E4304FF4806328
:10BB1000C4F8F060C4F8CC304FF40033C4F830E01F
:10BB2000C4F8E030C4E93066C4E93A664FF4006610
:10BB3000D8F80031C4F8B890C4F8D0604FF480460B
:10BB4000C4F8D830D8F8FC30C4F8D460C4F8BC309D
:10BB5000DDE904013EF002FF2B68BE8863636B6978
:10BB6000A3636B68E363AB682364EB6863642B686F
:10BB700043F010032B602B6843F014032B603B68E9
:10BB80000393DFE433684FF4867260494FF0020E8E
:10BB900023F00103304602FB05124FF4805151613E
:10BBA00008AA336000230A930D930F936023089330
:10BBB0004FF480730E93012309930A23CDE90B3EC2
:10BBC0003EF020FD4FF400630420AFE633684FF4ED
:10BBD00086724E49022023F0010302FB0512102158
:10BBE000516108AA336000230A930D930F936023D9
:10BBF00008934FF480730E93012309930A23CDE930
:10BC00000B3030463EF0FEFC00204FF400638DE622
:10BC100033684FF486723D49304623F0010302FB3E
:10BC200005120121516102223360002309910A9318
:10BC30000D930F93602308934FF480730E930A23A0
:10BC4000CDE90B3208AA3EF0DDFC002008236DE6AA
:10BC500033684FF486722D49022023F0010302FB62
:10BC600005124FF4807151616022336000230E9100
:10BC70000A930D930F930123CDE908230A2308AA01
:10BC8000CDE90B3030463EF0BDFC082304204DE6E4
:10BC90004FF0000C7BE6DBB20793013B61E60FF04F
:10BCA000D9F8039038B10599CA790221FFF710F845
:10BCB0005423039AD380736C43F4004373643FE6C8
:10BCC000154A164BABE5B1F5805F31D0B1F5803F39
:10BCD00028D0B1F5806F15BF4FF4006308233C20D6
:10BCE000042023E602230E4A82F8D33FDDE54029F3
:10BCF00015BF4FF4006308233C20002016E6DB004C
:10BD00008AE600BF78120020198100088001002017
:10BD1000ABAAAAAA88010020882A1100A0BB0D00A6
:10BD2000F017012008233C2000E608230420FDE54D
:10BD30004FF400630420F9E500200823F6E5002015
:10BD40004FF40063F2E500235B68FFDE00239B886D
:10BD5000FFDE00BF2DE9F84FDFF834C200227B4F31
:10BD600005466346D7F8D44F5968013224338C42D4
:10BD700000F0AE80102AF7D10024754B9D4205D00B
:10BD800048339D4202D00020BDE8F88F661EDFF8E0
:10BD9000048206EBC6034FEAC60908EB83029B0048
:10BDA00092F87020002AEED10F2EECD89C444FF070
:10BDB000170BACF81CB0002CE5D0DFF8ACA10120CB
:10BDC000DAF8243043F40063CAF82430FEF754FA5A
:10BDD000DAF82430012023F40063CAF82430FEF797
:10BDE0004BFAA7F812BCDAF8443043F40063CAF8FF
:10BDF0004430DAF8303043F48003CAF83030DAF8EF
:10BE0000303043F00C03CAF8303097F8DA3F002B9B
:10BE100060D10C220E214F48A7F832BCA7F862BCB3
:10BE2000FEF756FF0C220E214B484E44FEF750FF02
:10BE30000C220E214948FEF74BFF494B08EB8606C2
:10BE4000DB68C7F8D45FC3F30223C3F107011A1DEF
:10BE5000042928BF0421062A88BFDA1E4FF0FF33C9
:10BE600098BF00228B40DB4303F0010393403D4A1F
:10BE70001B01DBB282F831334FF40033716D536034
:10BE8000394A136B43F4800313630022374B2A6053
:10BE9000AB6003F59B3303F5EC739D4239D0344B13
:10BEA0004FF47410334AD8600720C3F8A020324AF8
:10BEB000C3F8B400914241D096203CF023FF002308
:10BEC00001222E492046FEF79DFE0120BDE8F88F95
:10BED000D4B252E70C220E211E48A7F81ABCA7F8CC
:10BEE00022BCA7F82ABCA7F832BCA7F862BCFEF7B0
:10BEF000EFFE0C220E212248FEF7EAFE0C220E2154
:10BF00002048FEF7E5FE0C220E211F48FEF7E0FE5A
:10BF100088E74FF07460174A583B986007209A658D
:10BF2000154AD86691420DD096203CF0EBFE0023D6
:10BF3000012216492046FEF765FEC6E795203CF033
:10BF4000E1FEBCE795203CF0DDFEF0E7F0170120B4
:10BF500058640240FC2301201C2401204C240120B1
:10BF600000ED00E000E100E000380240802C0140DC
:10BF7000006402406054A3080060024001CC000845
:10BF8000042401200C2401201424012039CB0008B2
:10BF9000540001200000012070B590F8B2311C0956
:10BFA000013C052C0FD81A4E054603F00F0306EB93
:10BFB0004402B2F8A80840FA03F2D20703D595F874
:10BFC000BD21012A01D0012070BD9A402644013ACA
:10BFD000104044F0ABFB96F8B4380E4A034402EB31
:10BFE000C30452F83320A38810691840ECD0002312
:10BFF00095F8B3210221204685F8BD31FEF768FE91
:10C00000D5F82021136843F008031360DBE700BF75
:10C01000E80A0508BC220120F0B503798BB0374C43
:10C02000002B14BF0122002284F8782303D184F866
:10C030004C330BB0F0BD04F56077054690F9001065
:10C04000384637F029FCAE78002E4AD12C4B01221D
:10C050002C49C4F81434D4F8243384F88C23B1EB7D
:10C06000930FC4F888634FEA93024FF0020306D29D
:10C0700052085B008A429BB201D9FF2BF8D94FF4DA
:10C080007A70A4F88433FEF7F7F8D4F8883313B144
:10C090001A689B8893611C4DEC460FCDACE80F00ED
:10C0A0000FCDACE80F0095E803008CE8030069466B
:10C0B000384637F03DFDD4F880331A6A002AFCD1A7
:10C0C0001EB10D213046FEF703FED4F820140122E4
:10C0D0000023C4F83C1384F84C2384F840330BB09D
:10C0E000F0BD30460EF0B6FE06460028AED01E2348
:10C0F00000222C21C380FEF7EBFDA7E7F0170120FB
:10C10000181B0120801A0600A4130508014B43F8F0
:10C110002010704750280040204B2148196C214ABC
:10C1200041F0805130B482B01964196CFF2401F0E1
:10C13000805101910199016841F480710160CA2028
:10C14000196C41F480611964196C01F480610091EB
:10C150005321009D5462506251625B6FDB0013D427
:10C16000114B00221149C3F85428C3F85828C3F8CA
:10C170005C28C3F86028C3F86428C3F86828C3F8AB
:10C18000501802B030BC7047A2F50062074BD2F8DD
:10C1900050289A42E4D102B030BC704700380240C7
:10C1A00000700040002800400020004031666542D9
:10C1B0002DE9F84F06460868BDF828700C46850A38
:10C1C0009DF82C80A5F58015522D00F2BA801946F5
:10C1D000A14B2B4493F8F4530D2D00F2B280FCF7E1
:10C1E0009FFE6279B8F1000F40F0AD80A0798446DF
:10C1F0009A4BA90103EB851595F808E5BEF1010FEF
:10C200005ED04FF001084FEA400EC00085F8088567
:10C210004FF002080EF0020E00F0080085F80985C4
:10C22000142A46D8DFE812F08D014500450045008C
:10C230005A014500450045002601450045004500DE
:10C24000E600450045004500150045004500450055
:10C25000B5005818DFF81092DFF80882D0F8CC0447
:10C26000056A404525F480350562056AD0F804A0CA
:10C2700025F4003545EA0E45D0F854E00EEA0909E8
:10C2800049F0600900F0908108F58068404500F0B1
:10C290008B81C0F804A0C0F8549087650562456D95
:10C2A00045F008054565456D25F004054565456D76
:10C2B00045655818012580F80955002580F808556E
:10C2C00058181CF0020F02F01F02D0F8CC043FD027
:10C2D000042505FA02F2056A25EA02050562056AE7
:10C2E0002A430262426C42F4004242645C4A85681E
:10C2F0002A40062A06D0B2F5803F03D0026842F0F9
:10C30000010202605A18022082F80905D2F8CC0412
:10C31000534A85682A40062A06D0B2F5803F03D0EA
:10C32000026842F0010202600B44012283F80925F1
:10C330002168637901F1340271600021D018306006
:10C34000D150BDE8F88F94F806C08CF001004FE79B
:10C35000012505FA02F2056A25EA02050562056A69
:10C360002A4302623F4A904209D002F5806290421D
:10C3700005D085683A4A2A40062ABCD1C2E7426CF9
:10C3800042F400424264364A85682A40062AB2D105
:10C39000B8E75818DFF8D490DFF8C880D0F8CC049C
:10C3A000056A404525F480150562056AD0F804A0A9
:10C3B00025F4001545EA0E55D0F854E00EEA0909B7
:10C3C00049F4C04900F0F38008F58068404500F06A
:10C3D000EE80C0F804A0C0F85490C7650562456DB2
:10C3E00045F400654565456D25F480654565456DF9
:10C3F00045655EE75818DFF87890DFF86880D0F878
:10C40000CC04056A404525F480550562056AD0F8DC
:10C4100004A025F4005545EA0E35D0F81CE00EEADC
:10C42000090949F4C04900F0CE8008F5806840450C
:10C4300000F0C980C0F804A0C0F81C900764056231
:10C44000C56945F40065C561C56925F48065C561A8
:10C45000C569C5612DE700BFE80A0508F01701208E
:10C4600007000100000001408FFFFEFFFF8FFFFE6D
:10C47000FF8CFFFE5D18DFF87891DFF878A1D5F822
:10C48000CC54D5F82080554528F48078C5F8208014
:10C49000D5F8208028F4007848EA0E2ED5F80480DC
:10C4A000D5F81CB00BEA090949F0600900F0828058
:10C4B0000AF5806A55457DD0C5F80480C5F81C9002
:10C4C000EF63C5F820E0E86940F00800E861E8693A
:10C4D00020F00400E861E869E861EAE65D18DFF849
:10C4E0001891DFF810A1D5F8CC54D5F82080554527
:10C4F00028F01008C5F82080D5F8208028F0200802
:10C5000048EA0E1ED5F80480D5F818B00BEA0909E0
:10C5100049F4C04963D00AF5806A55455FD0C5F833
:10C520000480C5F81890AF63C5F820E0A86940F40E
:10C530000060A861A86920F48060A861A869A8616A
:10C54000B7E65D18DFF8A890DFF8A8A0D5F8CC54BE
:10C55000D5F82080554528F00108C5F82080D5F889
:10C56000208028F002084EEA080ED5F80480D5F89D
:10C5700018B00BEA090949F0600927D00AF5806A6A
:10C58000554523D0C5F80480C5F818906F63C5F8E9
:10C5900020E0A86940F00800A861A86920F0040024
:10C5A000A861A869A86184E64AF4803A71E64AF471
:10C5B000802A0EE72EF4006E48F440584EEA002E12
:10C5C0002EF4806E78E74AF4804A33E72EF0080EA6
:10C5D00048F4407840EA0E0E2EF0040ED2E72EF01A
:10C5E000800E48F440684EEA001E2EF0400E96E79A
:10C5F0008CFFFEFF00000140FF8CFFFE2DE9F84F8D
:10C60000D0F894700446524B00F16406FDB227F056
:10C61000FF09826800F1180A103D4846D2F80080F0
:10C62000A3FB05352D0929463EF0E0F9626D002394
:10C63000B2F5807F84F858307ED00DD8102A00F0F3
:10C6400083805CD8012A45D0042A16BF6FF40061AC
:10C650006FF008013C230EE0B2F5805F70D0B2F5B8
:10C66000803F3AD0B2F5806F15BF6FF400616FF074
:10C6700008013C230423324608F11806404656F8C8
:10C6800003C001EA0C01F150D4F854B059463DF012
:10C69000B9FFBBF5807F2DD023D8BBF1100F3ED062
:10C6A00036D8BBF1010F02D0BBF1040F33D14FF0EC
:10C6B000080C336852462946484643EA0C03336067
:10C6C000402323623EF04AF93B6843F010033B608D
:10C6D000BDE8F88F6FF00801CDE76FF008013C234B
:10C6E000C9E7BBF5805F22D0BBF5803F1AD0BBF510
:10C6F000806F10D108F11C064FF0080CD9E7402AD2
:10C7000015BF6FF400616FF008013C230023B2E70E
:10C71000BBF1400FCBD03C364FF4006CC9E74FF46F
:10C72000006CC6E708F154064FF0080CC1E708F1A9
:10C730001C064FF4006CBCE76FF0080104239AE775
:10C740006FF40061042396E76FF4006193E700BF84
:10C75000ABAAAAAA2DE9F04F884C87B023781BB961
:10C76000012007B0BDE8F08F854BDFF828B2D3F881
:10C7700020340493FCF778FF9BF8243C002B00F056
:10C78000F78004F23464DBF81C340BF1080A0BF573
:10C790003A78C31A2646002705940193019A002A85
:10C7A00003DBF36D934200F3C98007EB8703734A01
:10C7B00002EB431393F88C3603F0FF0E002B00F0CE
:10C7C0008680D6F89410B3686E481A68CBB221F010
:10C7D000FF01103BA0FB03036B481B09C35C0B4428
:10C7E000B1895C68D368A4B223EA0103C4F11604DA
:10C7F000D360072C6BD9DBF8F03200220121013322
:10C8000015468946CBF8F032D6F89C30CDE902E7E0
:10C8100018689C4615E0142D1EDC17F1080E48BF61
:10C8200007F1170E4FEA2E1705EB2E1507F1FF3E05
:10C83000013102FA07F709FA0EFE8C424EEA0702AE
:10C840000AD307468C425CF8040FA0EB0707E2D836
:10C85000C5F115071525E9E7152DDDE902E764D1D6
:10C860004A4CC2F38421C2F3441004EB810104EB6F
:10C870008000D1F8E418D0F8E408090241EA001178
:10C8800002F01F00C2F3C43204EB800004EB82020A
:10C89000D0F8E408D2F8E428014341EA023282EAFF
:10C8A000122181EA111101F00F010F293DD1C2F3CC
:10C8B0000F124FF6FF718A4237D0B2F5606F41D048
:10C8C000A8F80C207146049A50460DF04FFF3046F0
:10C8D0000137FFF793FE9BF8243CA0360AF15C0A6F
:10C8E000BB4208F114083FF759AF01210022059C13
:10C8F0008BF8EC13CBF81C24002B3FF431AF03EB87
:10C90000830304EB4313A268A03414F8901C12684C
:10C9100054F84C0C11F0020F116A14BF41EA800167
:10C9200001439C421162EED11AE7DBF8EC2201329E
:10C93000CBF8EC22B7B14FF0000EC3E7002007B0F0
:10C94000BDE8F08F0E4991F8883403EB430301EB07
:10C95000C3033B4493F835340D2BB1D1802388F8C1
:10C960001E30AFE719465822094843F087FEE2E738
:10C970000122CBF81C348BF8EC23F1E68001002077
:10C98000F0170120ABAAAAAA90800508E80A0508BA
:10C990000C160020781200204A1C4FF4003310B40B
:10C9A00018BF4FF0450C484C08BF4FF0800C00E01A
:10C9B0000BB3626B013B12EA0C0FF9D0002925DDA5
:10C9C000626B54071ED4032920D03F4B5A6BD20709
:10C9D00020D402291CD01A69D2B282421ED1012968
:10C9E0005B691DD0062913D113F4604F44D1374A37
:10C9F000C2F8E03F0CE0002904DD636B5B0701D463
:10CA00000329E2D103205DF8044B7047002BF9D0D5
:10CA10000020F8E701205DF8044B70471020F2E792
:10CA20002B4A1A40002AF3D0002B31DB5C002DD4B6
:10CA3000980031D4D9002DD41A0131D45C012DD401
:10CA4000D80137D419021DD45A02E7D49C022DD440
:10CA5000D80229D4190317D45A0323D49C0331D400
:10CA6000D8032DD4190429D45A0425D49C041FD4E6
:10CA70001807CDD51A20C6E7990405D45A04CDD499
:10CA80001B04C5D50F20BEE71320BCE70920BAE779
:10CA90001C20B8E70B20B6E70A20B4E70D20B2E768
:10CAA0000C20B0E71420AEE71220ACE71120AAE773
:10CAB0001920A8E70E20A6E71820A4E71720A2E770
:10CAC0001620A0E715209EE7002C0140F01701205A
:10CAD00008E0FFFDF8B5164DD5F8BC32A3B1D5F886
:10CAE000C4120446012915D0124B40F2FF50002118
:10CAF000DA6A22F00802DA629863C5F8BC12236889
:10CB000023F001032360F8BD0A4AD36B43F480731A
:10CB1000D363F8BD074E40F2FF5700230C20B763E4
:10CB2000B36040F24C43F360FFF736FFB763DBE7D7
:10CB3000F0170120002C01402F4B1A68910102D5FB
:10CB40009A6D52074BD42C4B1A68500202D5DA6EFC
:10CB500011063CD4284B1A68D20102D59A6D900771
:10CB60002DD4254B1A68510102D59A6D120717D49E
:10CB7000214B1A68120112D59A6DD0060FD59A6D05
:10CB8000510334D49A6DD20503D49A6D22F0100269
:10CB90009A65194B4FF0006218489A609AE77047FF
:10CBA0009A6D500307D49A6DD10503D49A6D22F083
:10CBB00008029A65104B4FF080629A60D8E79A6D30
:10CBC0004FF0807122F002029A659960C9E7DA6E2F
:10CBD0004FF4800122F08002DA669960BAE79A6D1C
:10CBE0004FF0007122F004029A659960ABE74FF0B4
:10CBF00000629A60704700BF0064024058640240BF
:10CC0000384B5A68110303D5D3F8A02052075BD4E0
:10CC1000344B5A68D00303D5D3F8B420110649D455
:10CC2000304B5A68520303D5D3F8A020900737D46D
:10CC30002C4B5A68D10203D5D3F8A02012071CD47C
:10CC4000284B5A68920217D5D3F8A020D00613D5E6
:10CC5000D3F8A020510341D4D3F8A020D20505D4A5
:10CC6000D3F8A02022F01002C3F8A0201D4B4FF4EF
:10CC700000121D48DA602DE77047D3F8A02050035A
:10CC80000AD4D3F8A020D10505D4D3F8A02022F0EF
:10CC90000802C3F8A020134B4FF48012DA60CFE7EC
:10CCA000D3F8A0204FF4802122F00202C3F8A02084
:10CCB000D960BDE7D3F8B4204FF4803122F0800270
:10CCC000C3F8B420D960ABE7D3F8A0204FF400211B
:10CCD00022F00402C3F8A020D96099E74FF40012B3
:10CCE000DA60704700640240A06402402DE9F04120
:10CCF000564E82B096F82033022B00F29380544DAA
:10CD00006B6913F0007303D00E2002B0BDE8F08110
:10CD1000009340F2FF574FF48A634FF00808AF6367
:10CD20000446C5F8088001211020EB60FFF734FEAF
:10CD3000AF630028E9D1AF630121D6F8E03F372087
:10CD4000AB6040F27743EB60FFF726FEAF6300284D
:10CD5000DBD1404A40F2734301216A62C5F8288062
:10CD6000EA6A42F03302EA62AF63A8603320EB6004
:10CD7000FFF712FEAF630028C7D1694640F22A428E
:10CD800001E09B0254D46B6B13426B6BF9D01F070D
:10CD900053D46B6B980752D46B6B990651D46B6B61
:10CDA0009B0250D4B4F5006F009B18BF4FF4803243
:10CDB0001BBA08BF4FF480221A4237D0D6F8E02FB2
:10CDC00040F27743224D40F2FF5601213720AE63F7
:10CDD000AA60EB60FFF7E0FDAE63002895D1A4F5F3
:10CDE000006340F24642AE630121B3FA83F30620AA
:10CDF0005B095B00AB60EA60FFF7CEFDAE63002825
:10CE000083D16B6803F400639C423FF47EAF124A07
:10CE10006B68134023436B606B6803F40063A342A9
:10CE2000F6D172E7282002B0BDE8F08126206CE739
:10CE3000D5F8803041F8043BA5E7042065E70220DF
:10CE400063E7062061E722205FE700BFF0170120BB
:10CE5000002C014000E1F5050081FFFF0E4A012191
:10CE60000D20D2F8E02F38B50C4C40F2FF5540F2BF
:10CE70004D43A563A260E360FFF78EFDA56340B953
:10CE80006069C0F34320A0F10400B0FA80F04009CB
:10CE900038BD002038BD00BFF0170120002C014034
:10CEA0002DE9F043964D83B095F8E46F36B1954B7C
:10CEB00093F89432184603B0BDE8F083924B0122F8
:10CEC000924C022085F8E42F5A6C42F400625A64B6
:10CED0005B6C03F400630193019A8D4B626813400D
:10CEE000032243F076036360636823F48073636016
:10CEF0002260FDF7C1F9636840F2FF5243F480738A
:10CF000063604FF40033A2634FF48062A660E26076
:10CF100001E0002B5FD0626B013B1106F9D5002BBD
:10CF200059D040F2FF564FF4D5724FF48963072170
:10CF3000A6630820A663A260E360FFF72DFDA66349
:10CF4000002842D04FF00009704C40F2FF560023F9
:10CF50000121A6633720A36040F27743E360FFF727
:10CF60001BFDA663034648BBDFF8A881074649EAD4
:10CF70000808814610E0A6630137C4F80880E26023
:10CF8000FFF70AFD4FF6FE720346A663B0B9636968
:10CF9000002B29DB974227D840F27743A663012173
:10CFA000C4F808903720E360FFF7F6FC034640F230
:10CFB000694203212920A663002BDCD0514A82F864
:10CFC0009432184603B0BDE8F08301234FF0804946
:10CFD00085F82033B8E74D4A40F2FF5103239163AF
:10CFE000484A82F89432ECE74FF6FF72974200F01D
:10CFF000858013F0804F454B60D01B6802269A074E
:10D0000085F8206362D0414C40F2FF570023022193
:10D01000A763A36040F2C2430846E360FFF7BCFC8D
:10D02000A76303460028C9D16269062EA369C5E932
:10D03000A923E269236AC5E9AB2349D0022E47D967
:10D04000324C40F2C943D5F8E02F40F2FF5602219E
:10D050000920A663A260E360FFF79EFCA663034677
:10D060000028ABD16069A169E269236AC5E9A5011D
:10D07000C5E9A723FBF77CF9034600289ED1234C82
:10D0800040F24743D5F8E02F40F2FF560121072038
:10D09000A663A260E360FFF77FFCA6631C4A034619
:10D0A00061680A406260002888D195F8DA3F0BB3C6
:10D0B0004FF40060FFF71AFE03467FE71B689B07EB
:10D0C00004D095F82063042ED4D09CE7262375E77E
:10D0D0000E4C40F2434340F2FF560022062103204B
:10D0E000A663A260E360FFF757FCA663034600282F
:10D0F000A6D063E7FFF7FAFD03465FE71B235DE772
:10D10000F01701200000012000380240002C0140EF
:10D110000081FFFF0000108010B52A4C94F8E90F41
:10D120000DF098FE28B11F210022C1802021FDF7BB
:10D13000CFFDD4F88C284AB194F89838918803F040
:10D14000010312681B0101FA03F3936194F9DB2FC9
:10D15000D3B2012B1BD81C4B4FF00C0C6FF01300FB
:10D1600003F528711CFB020C02E01C3399420ED01F
:10D1700013F81C2C032AF8D113F81B2C002AF4D125
:10D1800053F80C000028F0D0FEF7E4FD08B90120A8
:10D1900010BDD4F87C3343B1196894F879239B8887
:10D1A00009690B4052B9002BF1D0FFF779FE002836
:10D1B000EDD1D4F82034C4F8243410BD002BE6D1CE
:10D1C000F3E700BFF0170120E40F050808B5FFF7EB
:10D1D00067FE58B1114A92F840330133DBB2072B96
:10D1E00082F8403303D9002382F84C3308BDD2F8CB
:10D1F0007C3343B1186892F879139B880069034027
:10D2000049B1002BEFD1D2F820140123C2F83C130E
:10D2100082F84C3308BD002BE5D0F4E7F01701206D
:10D2200010B50379344C002B14BF0123002384F87C
:10D23000783303D1002384F84C3310BD94F9DB2FED
:10D24000D3B2012BF6D82D4B4FF00C0C6FF013001E
:10D2500003F528711CFB020C02E01C338B42E9D061
:10D2600013F81C2C032AF8D113F81B2C002AF4D134
:10D2700053F80C000028F0D0214913464A682431A5
:10D28000904208D00133102BF8D1002384F81934D0
:10D2900084F84C3310BD94F8D92F0133003A84F848
:10D2A000193418BF012284F81A24FEF753FDD4F86C
:10D2B0007C3393B1196894F879239B8809690B40F2
:10D2C0004AB953B994F840330022013384F84C230F
:10D2D00084F8403310BD002BF4D1FFF7E1FD0028A6
:10D2E000F0D1D4F82024012384F84003C4F83C236F
:10D2F00084F84C3310BD00BFF0170120E40F05087F
:10D300005400012070B5174D40F2FF56164C40F204
:10D310004D43D5F8E02F0121A6630D20A260E36004
:10D32000FFF73AFBA66320B96369C3F34323042BD9
:10D3300002D04FF0FF3070BDD5F87C030028FAD042
:10D34000026895F879338088126910402BB900384B
:10D3500018BF0120013840B270BDB0FA80F040091A
:10D36000F8E700BFF0170120002C014070B51B4DFD
:10D3700010460A46D5F87C433CB12668A18834693A
:10D38000214095F879431CB321BB00213BF016FAEC
:10D3900000BBD5F8BC32002BFBD1114C40F2FF563C
:10D3A000D5F8E02F40F24D43A6630121A2600D2085
:10D3B000E360FFF7F1FAA6630028F1D16369C3F3D4
:10D3C0004323042BECD1D5F82034C5F8243470BDA8
:10D3D0000029DAD14FF0FF3070BD00BFF0170120F7
:10D3E000002C014070B51B4D10460A46D5F87C4311
:10D3F0003CB12668A1883469214095F879431CB373
:10D4000021BB00213BF076F900BBD5F8C032002BE0
:10D41000FBD1114C40F2FF56D5F8E02F40F24D43BE
:10D42000A6630121A2600D20E360FFF7B5FAA663B1
:10D430000028F1D16369C3F34323042BECD1D5F861
:10D440002034C5F8243470BD0029DAD14FF0FF3004
:10D4500070BD00BFF0170120002C014070B5154CC5
:10D46000002394F81A24C4F848330AB1C4F8F03FF2
:10D47000114D40F2FF56D4F8E02F40F24D43AE6319
:10D480000121AA600D20EB60FFF786FAAE6320B998
:10D490006B69C3F34323042B08D0D4F82024092359
:10D4A0000020C4F83C2384F84C3370BD022084F87B
:10D4B0004C3370BDF0170120002C0140F8B5924CA0
:10D4C00094F87863002E00F0DB8094F84C536B1EC8
:10D4D000082B0ED8DFE803F0C6057A0D2861460D4B
:10D4E0001900FFF7BBFC002840F0CE8094F84C53A5
:10D4F0006B1EDBB2022B40F2B980082D18BF042D41
:10D500000CBF012600263046F8BDFFF7A7FC002817
:10D5100040F0EE80D4F83C33D4F82024FA33934220
:10D52000E4D2FFF753FED0E7D4F8BC72002F40F0EE
:10D53000D680FFF793FC0028C7D00423D4F83453D7
:10D5400084F8407384F84C33002DDCD0D4F83833A1
:10D550003846D4F82823D4F82C13A84794F84C5311
:10D560006B1EC6E7FFF77AFC0028D3D0D4F8483307
:10D570000022012B84F8402340F2BE80D4F84413EB
:10D58000013B0131C4E9D11394F81A340BB1C4F84A
:10D59000F02F082384F84C33B5E7D4F8C032002BC1
:10D5A0006BD10722D4F82034D4F8345384F84C23B8
:10D5B000C4F83C33002D60D0D4F838330120D4E9CE
:10D5C000CA21A84794F84C536B1E92E7FAF7D0FE95
:10D5D00000284BD194F8F4220421B4F8F63284F8F0
:10D5E0005623D4F8F822A4F85433120ED4F8F832A3
:10D5F00084F84C131B0C84F85723D4F8F822D4F881
:10D60000F812120A84F8583384F85A1394F8FC126A
:10D6100094F8FD3284F859231B0994F8FD2284F80C
:10D620005B13D4F8001302F00F0284F86033C4F8DF
:10D630005C13B4F80613B4F8063384F86123C3F31B
:10D640000B13B4F80623C4F8480343EA112302F08D
:10D650000F0203F00F0384F8642303F5FA63A4F8C0
:10D66000623332E7022384F84C332EE7D4F82034B7
:10D67000D4F83C239B1AC82B26D800263046F8BD88
:10D68000304684F84C63F8BDFAF772FE00287FF448
:10D690002DAF94F82033002BA3F10203B3FA83F3E8
:10D6A00008BF01255B0984F8415384F84233FAF737
:10D6B0005FFE00287FF435AFD4F810230323C4F8AD
:10D6C000502384F84C3300E7FFF780FD94F84C6357
:10D6D000082E18BF042E0CBF0126002613E7D4F82D
:10D6E0003C33D4F8202464339342FFF4EEAE04E7D5
:10D6F000042384F84C3306E7FAD1FFF7AFFE94F821
:10D700004C536B1EF5E600BFF01701202DE9F047E2
:10D7100005460E4690461F46344C94F84C13042997
:10D720000BD0082907D1D4F84433AB4205D0FFF71A
:10D7300095FE0228F1D001201DE0D4F8F09FC9F336
:10D740004F230F2BC4E9CA6504D8D4F848A3BAF113
:10D75000000F12D10123062128460125324684F804
:10D760004C130021C4F83483C4F8387384F8305360
:10D770003AF0C0FFE8B9BDE8F08794F81A34002BFE
:10D78000E8D01B484FF400723146484442F076FF1F
:10D7900009F50073C3F34F22C4F8F03F5B0A102A67
:10D7A00002D0BAF1010F12D19BB2114E5A1EAD1A1E
:10D7B000D1E7FFF70BFDD4F8346336B1D4F8383332
:10D7C0000022D4F82C132846B0470320D3E7D4F81E
:10D7D00044230AF1FF33042102200132C4F8483304
:10D7E00084F84C13C4F84423C5E700BFF0170120A8
:10D7F000F843012070B50D4D04460E4695F84C33A4
:10D80000042B0BD0082B07D1D5F8443383420AD020
:10D81000FFF724FE022801D0012070BD0823C5E9CE
:10D82000D14685F84C33022070BD00BFF0170120AF
:10D830002DE9F0411C4C05468846174694F84C03E8
:10D840001E46042808D0082802D00020BDE8F08138
:10D85000FFF704FE0228F8D10123424628460021A2
:10D860003AF0ACFF68B1FFF7B1FCD4F83453002DA7
:10D87000EBD00022D4F83833D4F82C131046A84744
:10D88000E3E70522D4F820340120C4F82883C4F843
:10D890002C53C4F83473C4F8386384F84C23C4F8A8
:10D8A0003C33BDE8F08100BFF017012070B52F4C6C
:10D8B000636BD9051DD54FF4807240F2FF562C4B97
:10D8C000A263A663E26B2B4D1340E363D5F8C43229
:10D8D0009A0721D401220023C5F8B422C5F8B83232
:10D8E000224B40F2FF51224A9963D96B0A40DA6316
:10D8F00070BD636B980704D51E4B0222C3F8B82293
